{
  "_format": "hh-sol-artifact-1",
  "contractName": "Owner",
  "sourceName": "contracts/2_Owner.sol",
  "abi": [
    {
      "inputs": [],
      "stateMutability": "nonpayable",
      "type": "constructor"
    },
    {
      "anonymous": false,
      "inputs": [
        {
          "indexed": true,
          "internalType": "address",
          "name": "oldOwner",
          "type": "address"
        },
        {
          "indexed": true,
          "internalType": "address",
          "name": "newOwner",
          "type": "address"
        }
      ],
      "name": "OwnerSet",
      "type": "event"
    },
    {
      "inputs": [
        {
          "internalType": "address",
          "name": "newOwner",
          "type": "address"
        }
      ],
      "name": "changeOwner",
      "outputs": [],
      "stateMutability": "nonpayable",
      "type": "function"
    },
    {
      "inputs": [],
      "name": "getOwner",
      "outputs": [
        {
          "internalType": "address",
          "name": "",
          "type": "address"
        }
      ],
      "stateMutability": "view",
      "type": "function"
    }
  ],
  "bytecode": "0x608060405234801561001057600080fd5b50336000806101000a81548173ffffffffffffffffffffffffffffffffffffffff021916908373ffffffffffffffffffffffffffffffffffffffff16021790555060008054906101000a900473ffffffffffffffffffffffffffffffffffffffff1673ffffffffffffffffffffffffffffffffffffffff16600073ffffffffffffffffffffffffffffffffffffffff167f342827c97908e5e2f71151c08502a66d44b6f758e3ac2f1de95f02eb95f0a73560405160405180910390a3610457806100db6000396000f3fe608060405234801561001057600080fd5b50600436106100365760003560e01c8063893d20e81461003b578063a6f9dae114610059575b600080fd5b610043610075565b6040516100509190610299565b60405180910390f35b610073600480360381019061006e91906102e5565b61009e565b005b60008060009054906101000a900473ffffffffffffffffffffffffffffffffffffffff16905090565b60008054906101000a900473ffffffffffffffffffffffffffffffffffffffff1673ffffffffffffffffffffffffffffffffffffffff163373ffffffffffffffffffffffffffffffffffffffff161461012c576040517f08c379a00000000000000000000000000000000000000000000000000000000081526004016101239061036f565b60405180910390fd5b600073ffffffffffffffffffffffffffffffffffffffff168173ffffffffffffffffffffffffffffffffffffffff160361019b576040517f08c379a000000000000000000000000000000000000000000000000000000000815260040161019290610401565b60405180910390fd5b8073ffffffffffffffffffffffffffffffffffffffff1660008054906101000a900473ffffffffffffffffffffffffffffffffffffffff1673ffffffffffffffffffffffffffffffffffffffff167f342827c97908e5e2f71151c08502a66d44b6f758e3ac2f1de95f02eb95f0a73560405160405180910390a3806000806101000a81548173ffffffffffffffffffffffffffffffffffffffff021916908373ffffffffffffffffffffffffffffffffffffffff16021790555050565b600073ffffffffffffffffffffffffffffffffffffffff82169050919050565b600061028382610258565b9050919050565b61029381610278565b82525050565b60006020820190506102ae600083018461028a565b92915050565b600080fd5b6102c281610278565b81146102cd57600080fd5b50565b6000813590506102df816102b9565b92915050565b6000602082840312156102fb576102fa6102b4565b5b6000610309848285016102d0565b91505092915050565b600082825260208201905092915050565b7f43616c6c6572206973206e6f74206f776e657200000000000000000000000000600082015250565b6000610359601383610312565b915061036482610323565b602082019050919050565b600060208201905081810360008301526103888161034c565b9050919050565b7f4e6577206f776e65722073686f756c64206e6f7420626520746865207a65726f60008201527f2061646472657373000000000000000000000000000000000000000000000000602082015250565b60006103eb602883610312565b91506103f68261038f565b604082019050919050565b6000602082019050818103600083015261041a816103de565b905091905056fea2646970667358221220d69cacac9e0907f09b02e350b058bcace10ac6a51c2fd58704881a184ccf9cc064736f6c63430008180033",
  "linkReferences": {},
  "deployedLinkReferences": {}
}