{"contracts/SecureVoting.sol":{"SecureVoting":{"abi":[{"inputs":[{"internalType":"string[]","name":"_candidates","type":"string[]"}],"stateMutability":"nonpayable","type":"constructor"},{"inputs":[],"name":"admin","outputs":[{"internalType":"address","name":"","type":"address"}],"stateMutability":"view","type":"function"},{"inputs":[{"internalType":"uint256","name":"","type":"uint256"}],"name":"candidates","outputs":[{"internalType":"string","name":"","type":"string"}],"stateMutability":"view","type":"function"},{"inputs":[],"name":"electionActive","outputs":[{"internalType":"bool","name":"","type":"bool"}],"stateMutability":"view","type":"function"},{"inputs":[],"name":"endElection","outputs":[],"stateMutability":"nonpayable","type":"function"},{"inputs":[],"name":"getCandidates","outputs":[{"internalType":"string[]","name":"","type":"string[]"}],"stateMutability":"view","type":"function"},{"inputs":[{"internalType":"uint256","name":"candidateId","type":"uint256"}],"name":"getVotes","outputs":[{"internalType":"uint256","name":"","type":"uint256"}],"stateMutability":"view","type":"function"},{"inputs":[{"internalType":"address","name":"","type":"address"}],"name":"hasVoted","outputs":[{"internalType":"bool","name":"","type":"bool"}],"stateMutability":"view","type":"function"},{"inputs":[],"name":"startElection","outputs":[],"stateMutability":"nonpayable","type":"function"},{"inputs":[{"internalType":"uint256","name":"candidateId","type":"uint256"}],"name":"vote","outputs":[],"stateMutability":"nonpayable","type":"function"},{"inputs":[{"internalType":"uint256","name":"","type":"uint256"}],"name":"votes","outputs":[{"internalType":"uint256","name":"","type":"uint256"}],"stateMutability":"view","type":"function"}],"evm":{"bytecode":{"linkReferences":{},"object":"60806040523480156200001157600080fd5b50604051620014d4380380620014d483398181016040528101906200003791906200042d565b336000806101000a81548173ffffffffffffffffffffffffffffffffffffffff021916908373ffffffffffffffffffffffffffffffffffffffff16021790555080600190805190602001906200008f929190620000b1565b5060008060146101000a81548160ff02191690831515021790555050620007b0565b828054828255906000526020600020908101928215620000fe579160200282015b82811115620000fd578251829081620000ec9190620006c9565b5091602001919060010190620000d2565b5b5090506200010d919062000111565b5090565b5b808211156200013557600081816200012b919062000139565b5060010162000112565b5090565b5080546200014790620004b8565b6000825580601f106200015b57506200017c565b601f0160209004906000526020600020908101906200017b91906200017f565b5b50565b5b808211156200019a57600081600090555060010162000180565b5090565b6000604051905090565b600080fd5b600080fd5b600080fd5b6000601f19601f8301169050919050565b7f4e487b7100000000000000000000000000000000000000000000000000000000600052604160045260246000fd5b6200020282620001b7565b810181811067ffffffffffffffff82111715620002245762000223620001c8565b5b80604052505050565b6000620002396200019e565b9050620002478282620001f7565b919050565b600067ffffffffffffffff8211156200026a5762000269620001c8565b5b602082029050602081019050919050565b600080fd5b600080fd5b600067ffffffffffffffff821115620002a357620002a2620001c8565b5b620002ae82620001b7565b9050602081019050919050565b60005b83811015620002db578082015181840152602081019050620002be565b60008484015250505050565b6000620002fe620002f88462000285565b6200022d565b9050828152602081018484840111156200031d576200031c62000280565b5b6200032a848285620002bb565b509392505050565b600082601f8301126200034a5762000349620001b2565b5b81516200035c848260208601620002e7565b91505092915050565b60006200037c62000376846200024c565b6200022d565b90508083825260208201905060208402830185811115620003a257620003a16200027b565b5b835b81811015620003f057805167ffffffffffffffff811115620003cb57620003ca620001b2565b5b808601620003da898262000332565b85526020850194505050602081019050620003a4565b5050509392505050565b600082601f830112620004125762000411620001b2565b5b81516200042484826020860162000365565b91505092915050565b600060208284031215620004465762000445620001a8565b5b600082015167ffffffffffffffff811115620004675762000466620001ad565b5b6200047584828501620003fa565b91505092915050565b600081519050919050565b7f4e487b7100000000000000000000000000000000000000000000000000000000600052602260045260246000fd5b60006002820490506001821680620004d157607f821691505b602082108103620004e757620004e662000489565b5b50919050565b60008190508160005260206000209050919050565b60006020601f8301049050919050565b600082821b905092915050565b600060088302620005517fffffffffffffffffffffffffffffffffffffffffffffffffffffffffffffffff8262000512565b6200055d868362000512565b95508019841693508086168417925050509392505050565b6000819050919050565b6000819050919050565b6000620005aa620005a46200059e8462000575565b6200057f565b62000575565b9050919050565b6000819050919050565b620005c68362000589565b620005de620005d582620005b1565b8484546200051f565b825550505050565b600090565b620005f5620005e6565b62000602818484620005bb565b505050565b5b818110156200062a576200061e600082620005eb565b60018101905062000608565b5050565b601f82111562000679576200064381620004ed565b6200064e8462000502565b810160208510156200065e578190505b620006766200066d8562000502565b83018262000607565b50505b505050565b600082821c905092915050565b60006200069e600019846008026200067e565b1980831691505092915050565b6000620006b983836200068b565b9150826002028217905092915050565b620006d4826200047e565b67ffffffffffffffff811115620006f057620006ef620001c8565b5b620006fc8254620004b8565b620007098282856200062e565b600060209050601f8311600181146200074157600084156200072c578287015190505b620007388582620006ab565b865550620007a8565b601f1984166200075186620004ed565b60005b828110156200077b5784890151825560018201915060208501945060208101905062000754565b868310156200079b578489015162000797601f8916826200068b565b8355505b6001600288020188555050505b505050505050565b610d1480620007c06000396000f3fe608060405234801561001057600080fd5b506004361061009e5760003560e01c80635df81330116100665780635df813301461014757806362d73eb8146101775780637ed628bb14610181578063f851a4401461019f578063ff981099146101bd5761009e565b80630121b93f146100a357806306a49fce146100bf57806309eef43e146100dd5780633477ee2e1461010d57806359f784681461013d575b600080fd5b6100bd60048036038101906100b89190610735565b6101ed565b005b6100c7610394565b6040516100d491906108b4565b60405180910390f35b6100f760048036038101906100f29190610934565b61046d565b604051610104919061097c565b60405180910390f35b61012760048036038101906101229190610735565b61048d565b60405161013491906109e1565b60405180910390f35b610145610539565b005b610161600480360381019061015c9190610735565b6105e3565b60405161016e9190610a12565b60405180910390f35b61017f6105fb565b005b6101896106a6565b604051610196919061097c565b60405180910390f35b6101a76106b9565b6040516101b49190610a3c565b60405180910390f35b6101d760048036038101906101d29190610735565b6106dd565b6040516101e49190610a12565b60405180910390f35b600060149054906101000a900460ff1661023c576040517f08c379a000000000000000000000000000000000000000000000000000000000815260040161023390610aa3565b60405180910390fd5b600260003373ffffffffffffffffffffffffffffffffffffffff1673ffffffffffffffffffffffffffffffffffffffff16815260200190815260200160002060009054906101000a900460ff16156102c9576040517f08c379a00000000000000000000000000000000000000000000000000000000081526004016102c090610b0f565b60405180910390fd5b6001805490508110610310576040517f08c379a000000000000000000000000000000000000000000000000000000000815260040161030790610b7b565b60405180910390fd5b6001600260003373ffffffffffffffffffffffffffffffffffffffff1673ffffffffffffffffffffffffffffffffffffffff16815260200190815260200160002060006101000a81548160ff02191690831515021790555060036000828152602001908152602001600020600081548092919061038c90610bca565b919050555050565b60606001805480602002602001604051908101604052809291908181526020016000905b828210156104645783829060005260206000200180546103d790610c41565b80601f016020809104026020016040519081016040528092919081815260200182805461040390610c41565b80156104505780601f1061042557610100808354040283529160200191610450565b820191906000526020600020905b81548152906001019060200180831161043357829003601f168201915b5050505050815260200190600101906103b8565b50505050905090565b60026020528060005260406000206000915054906101000a900460ff1681565b6001818154811061049d57600080fd5b9060005260206000200160009150905080546104b890610c41565b80601f01602080910402602001604051908101604052809291908181526020018280546104e490610c41565b80156105315780601f1061050657610100808354040283529160200191610531565b820191906000526020600020905b81548152906001019060200180831161051457829003601f168201915b505050505081565b60008054906101000a900473ffffffffffffffffffffffffffffffffffffffff1673ffffffffffffffffffffffffffffffffffffffff163373ffffffffffffffffffffffffffffffffffffffff16146105c7576040517f08c379a00000000000000000000000000000000000000000000000000000000081526004016105be90610cbe565b60405180910390fd5b60008060146101000a81548160ff021916908315150217905550565b60036020528060005260406000206000915090505481565b60008054906101000a900473ffffffffffffffffffffffffffffffffffffffff1673ffffffffffffffffffffffffffffffffffffffff163373ffffffffffffffffffffffffffffffffffffffff1614610689576040517f08c379a000000000000000000000000000000000000000000000000000000000815260040161068090610cbe565b60405180910390fd5b6001600060146101000a81548160ff021916908315150217905550565b600060149054906101000a900460ff1681565b60008054906101000a900473ffffffffffffffffffffffffffffffffffffffff1681565b600060036000838152602001908152602001600020549050919050565b600080fd5b6000819050919050565b610712816106ff565b811461071d57600080fd5b50565b60008135905061072f81610709565b92915050565b60006020828403121561074b5761074a6106fa565b5b600061075984828501610720565b91505092915050565b600081519050919050565b600082825260208201905092915050565b6000819050602082019050919050565b600081519050919050565b600082825260208201905092915050565b60005b838110156107c85780820151818401526020810190506107ad565b60008484015250505050565b6000601f19601f8301169050919050565b60006107f08261078e565b6107fa8185610799565b935061080a8185602086016107aa565b610813816107d4565b840191505092915050565b600061082a83836107e5565b905092915050565b6000602082019050919050565b600061084a82610762565b610854818561076d565b9350836020820285016108668561077e565b8060005b858110156108a25784840389528151610883858261081e565b945061088e83610832565b925060208a0199505060018101905061086a565b50829750879550505050505092915050565b600060208201905081810360008301526108ce818461083f565b905092915050565b600073ffffffffffffffffffffffffffffffffffffffff82169050919050565b6000610901826108d6565b9050919050565b610911816108f6565b811461091c57600080fd5b50565b60008135905061092e81610908565b92915050565b60006020828403121561094a576109496106fa565b5b60006109588482850161091f565b91505092915050565b60008115159050919050565b61097681610961565b82525050565b6000602082019050610991600083018461096d565b92915050565b600082825260208201905092915050565b60006109b38261078e565b6109bd8185610997565b93506109cd8185602086016107aa565b6109d6816107d4565b840191505092915050565b600060208201905081810360008301526109fb81846109a8565b905092915050565b610a0c816106ff565b82525050565b6000602082019050610a276000830184610a03565b92915050565b610a36816108f6565b82525050565b6000602082019050610a516000830184610a2d565b92915050565b7f456c656374696f6e206e6f742061637469766500000000000000000000000000600082015250565b6000610a8d601383610997565b9150610a9882610a57565b602082019050919050565b60006020820190508181036000830152610abc81610a80565b9050919050565b7f416c726561647920766f74656400000000000000000000000000000000000000600082015250565b6000610af9600d83610997565b9150610b0482610ac3565b602082019050919050565b60006020820190508181036000830152610b2881610aec565b9050919050565b7f496e76616c69642063616e646964617465000000000000000000000000000000600082015250565b6000610b65601183610997565b9150610b7082610b2f565b602082019050919050565b60006020820190508181036000830152610b9481610b58565b9050919050565b7f4e487b7100000000000000000000000000000000000000000000000000000000600052601160045260246000fd5b6000610bd5826106ff565b91507fffffffffffffffffffffffffffffffffffffffffffffffffffffffffffffffff8203610c0757610c06610b9b565b5b600182019050919050565b7f4e487b7100000000000000000000000000000000000000000000000000000000600052602260045260246000fd5b60006002820490506001821680610c5957607f821691505b602082108103610c6c57610c6b610c12565b5b50919050565b7f4f6e6c792061646d696e00000000000000000000000000000000000000000000600082015250565b6000610ca8600a83610997565b9150610cb382610c72565b602082019050919050565b60006020820190508181036000830152610cd781610c9b565b905091905056fea2646970667358221220aced67d920e63127f2ca51bdc061b9f1b7c7315ef57b1b556b8977446f1cb34664736f6c63430008180033","opcodes":"PUSH1 0x80 PUSH1 0x40 MSTORE CALLVALUE DUP1 ISZERO PUSH3 0x11 JUMPI PUSH1 0x0 DUP1 REVERT JUMPDEST POP PUSH1 0x40 MLOAD PUSH3 0x14D4 CODESIZE SUB DUP1 PUSH3 0x14D4 DUP4 CODECOPY DUP2 DUP2 ADD PUSH1 0x40 MSTORE DUP2 ADD SWAP1 PUSH3 0x37 SWAP2 SWAP1 PUSH3 0x42D JUMP JUMPDEST CALLER PUSH1 0x0 DUP1 PUSH2 0x100 EXP DUP2 SLOAD DUP2 PUSH20 0xFFFFFFFFFFFFFFFFFFFFFFFFFFFFFFFFFFFFFFFF MUL NOT AND SWAP1 DUP4 PUSH20 0xFFFFFFFFFFFFFFFFFFFFFFFFFFFFFFFFFFFFFFFF AND MUL OR SWAP1 SSTORE POP DUP1 PUSH1 0x1 SWAP1 DUP1 MLOAD SWAP1 PUSH1 0x20 ADD SWAP1 PUSH3 0x8F SWAP3 SWAP2 SWAP1 PUSH3 0xB1 JUMP JUMPDEST POP PUSH1 0x0 DUP1 PUSH1 0x14 PUSH2 0x100 EXP DUP2 SLOAD DUP2 PUSH1 0xFF MUL NOT AND SWAP1 DUP4 ISZERO ISZERO MUL OR SWAP1 SSTORE POP POP PUSH3 0x7B0 JUMP JUMPDEST DUP3 DUP1 SLOAD DUP3 DUP3 SSTORE SWAP1 PUSH1 0x0 MSTORE PUSH1 0x20 PUSH1 0x0 KECCAK256 SWAP1 DUP2 ADD SWAP3 DUP3 ISZERO PUSH3 0xFE JUMPI SWAP2 PUSH1 0x20 MUL DUP3 ADD JUMPDEST DUP3 DUP2 GT ISZERO PUSH3 0xFD JUMPI DUP3 MLOAD DUP3 SWAP1 DUP2 PUSH3 0xEC SWAP2 SWAP1 PUSH3 0x6C9 JUMP JUMPDEST POP SWAP2 PUSH1 0x20 ADD SWAP2 SWAP1 PUSH1 0x1 ADD SWAP1 PUSH3 0xD2 JUMP JUMPDEST JUMPDEST POP SWAP1 POP PUSH3 0x10D SWAP2 SWAP1 PUSH3 0x111 JUMP JUMPDEST POP SWAP1 JUMP JUMPDEST JUMPDEST DUP1 DUP3 GT ISZERO PUSH3 0x135 JUMPI PUSH1 0x0 DUP2 DUP2 PUSH3 0x12B SWAP2 SWAP1 PUSH3 0x139 JUMP JUMPDEST POP PUSH1 0x1 ADD PUSH3 0x112 JUMP JUMPDEST POP SWAP1 JUMP JUMPDEST POP DUP1 SLOAD PUSH3 0x147 SWAP1 PUSH3 0x4B8 JUMP JUMPDEST PUSH1 0x0 DUP3 SSTORE DUP1 PUSH1 0x1F LT PUSH3 0x15B JUMPI POP PUSH3 0x17C JUMP JUMPDEST PUSH1 0x1F ADD PUSH1 0x20 SWAP1 DIV SWAP1 PUSH1 0x0 MSTORE PUSH1 0x20 PUSH1 0x0 KECCAK256 SWAP1 DUP2 ADD SWAP1 PUSH3 0x17B SWAP2 SWAP1 PUSH3 0x17F JUMP JUMPDEST JUMPDEST POP JUMP JUMPDEST JUMPDEST DUP1 DUP3 GT ISZERO PUSH3 0x19A JUMPI PUSH1 0x0 DUP2 PUSH1 0x0 SWAP1 SSTORE POP PUSH1 0x1 ADD PUSH3 0x180 JUMP JUMPDEST POP SWAP1 JUMP JUMPDEST PUSH1 0x0 PUSH1 0x40 MLOAD SWAP1 POP SWAP1 JUMP JUMPDEST PUSH1 0x0 DUP1 REVERT JUMPDEST PUSH1 0x0 DUP1 REVERT JUMPDEST PUSH1 0x0 DUP1 REVERT JUMPDEST PUSH1 0x0 PUSH1 0x1F NOT PUSH1 0x1F DUP4 ADD AND SWAP1 POP SWAP2 SWAP1 POP JUMP JUMPDEST PUSH32 0x4E487B7100000000000000000000000000000000000000000000000000000000 PUSH1 0x0 MSTORE PUSH1 0x41 PUSH1 0x4 MSTORE PUSH1 0x24 PUSH1 0x0 REVERT JUMPDEST PUSH3 0x202 DUP3 PUSH3 0x1B7 JUMP JUMPDEST DUP2 ADD DUP2 DUP2 LT PUSH8 0xFFFFFFFFFFFFFFFF DUP3 GT OR ISZERO PUSH3 0x224 JUMPI PUSH3 0x223 PUSH3 0x1C8 JUMP JUMPDEST JUMPDEST DUP1 PUSH1 0x40 MSTORE POP POP POP JUMP JUMPDEST PUSH1 0x0 PUSH3 0x239 PUSH3 0x19E JUMP JUMPDEST SWAP1 POP PUSH3 0x247 DUP3 DUP3 PUSH3 0x1F7 JUMP JUMPDEST SWAP2 SWAP1 POP JUMP JUMPDEST PUSH1 0x0 PUSH8 0xFFFFFFFFFFFFFFFF DUP3 GT ISZERO PUSH3 0x26A JUMPI PUSH3 0x269 PUSH3 0x1C8 JUMP JUMPDEST JUMPDEST PUSH1 0x20 DUP3 MUL SWAP1 POP PUSH1 0x20 DUP2 ADD SWAP1 POP SWAP2 SWAP1 POP JUMP JUMPDEST PUSH1 0x0 DUP1 REVERT JUMPDEST PUSH1 0x0 DUP1 REVERT JUMPDEST PUSH1 0x0 PUSH8 0xFFFFFFFFFFFFFFFF DUP3 GT ISZERO PUSH3 0x2A3 JUMPI PUSH3 0x2A2 PUSH3 0x1C8 JUMP JUMPDEST JUMPDEST PUSH3 0x2AE DUP3 PUSH3 0x1B7 JUMP JUMPDEST SWAP1 POP PUSH1 0x20 DUP2 ADD SWAP1 POP SWAP2 SWAP1 POP JUMP JUMPDEST PUSH1 0x0 JUMPDEST DUP4 DUP2 LT ISZERO PUSH3 0x2DB JUMPI DUP1 DUP3 ADD MLOAD DUP2 DUP5 ADD MSTORE PUSH1 0x20 DUP2 ADD SWAP1 POP PUSH3 0x2BE JUMP JUMPDEST PUSH1 0x0 DUP5 DUP5 ADD MSTORE POP POP POP POP JUMP JUMPDEST PUSH1 0x0 PUSH3 0x2FE PUSH3 0x2F8 DUP5 PUSH3 0x285 JUMP JUMPDEST PUSH3 0x22D JUMP JUMPDEST SWAP1 POP DUP3 DUP2 MSTORE PUSH1 0x20 DUP2 ADD DUP5 DUP5 DUP5 ADD GT ISZERO PUSH3 0x31D JUMPI PUSH3 0x31C PUSH3 0x280 JUMP JUMPDEST JUMPDEST PUSH3 0x32A DUP5 DUP3 DUP6 PUSH3 0x2BB JUMP JUMPDEST POP SWAP4 SWAP3 POP POP POP JUMP JUMPDEST PUSH1 0x0 DUP3 PUSH1 0x1F DUP4 ADD SLT PUSH3 0x34A JUMPI PUSH3 0x349 PUSH3 0x1B2 JUMP JUMPDEST JUMPDEST DUP2 MLOAD PUSH3 0x35C DUP5 DUP3 PUSH1 0x20 DUP7 ADD PUSH3 0x2E7 JUMP JUMPDEST SWAP2 POP POP SWAP3 SWAP2 POP POP JUMP JUMPDEST PUSH1 0x0 PUSH3 0x37C PUSH3 0x376 DUP5 PUSH3 0x24C JUMP JUMPDEST PUSH3 0x22D JUMP JUMPDEST SWAP1 POP DUP1 DUP4 DUP3 MSTORE PUSH1 0x20 DUP3 ADD SWAP1 POP PUSH1 0x20 DUP5 MUL DUP4 ADD DUP6 DUP2 GT ISZERO PUSH3 0x3A2 JUMPI PUSH3 0x3A1 PUSH3 0x27B JUMP JUMPDEST JUMPDEST DUP4 JUMPDEST DUP2 DUP2 LT ISZERO PUSH3 0x3F0 JUMPI DUP1 MLOAD PUSH8 0xFFFFFFFFFFFFFFFF DUP2 GT ISZERO PUSH3 0x3CB JUMPI PUSH3 0x3CA PUSH3 0x1B2 JUMP JUMPDEST JUMPDEST DUP1 DUP7 ADD PUSH3 0x3DA DUP10 DUP3 PUSH3 0x332 JUMP JUMPDEST DUP6 MSTORE PUSH1 0x20 DUP6 ADD SWAP5 POP POP POP PUSH1 0x20 DUP2 ADD SWAP1 POP PUSH3 0x3A4 JUMP JUMPDEST POP POP POP SWAP4 SWAP3 POP POP POP JUMP JUMPDEST PUSH1 0x0 DUP3 PUSH1 0x1F DUP4 ADD SLT PUSH3 0x412 JUMPI PUSH3 0x411 PUSH3 0x1B2 JUMP JUMPDEST JUMPDEST DUP2 MLOAD PUSH3 0x424 DUP5 DUP3 PUSH1 0x20 DUP7 ADD PUSH3 0x365 JUMP JUMPDEST SWAP2 POP POP SWAP3 SWAP2 POP POP JUMP JUMPDEST PUSH1 0x0 PUSH1 0x20 DUP3 DUP5 SUB SLT ISZERO PUSH3 0x446 JUMPI PUSH3 0x445 PUSH3 0x1A8 JUMP JUMPDEST JUMPDEST PUSH1 0x0 DUP3 ADD MLOAD PUSH8 0xFFFFFFFFFFFFFFFF DUP2 GT ISZERO PUSH3 0x467 JUMPI PUSH3 0x466 PUSH3 0x1AD JUMP JUMPDEST JUMPDEST PUSH3 0x475 DUP5 DUP3 DUP6 ADD PUSH3 0x3FA JUMP JUMPDEST SWAP2 POP POP SWAP3 SWAP2 POP POP JUMP JUMPDEST PUSH1 0x0 DUP2 MLOAD SWAP1 POP SWAP2 SWAP1 POP JUMP JUMPDEST PUSH32 0x4E487B7100000000000000000000000000000000000000000000000000000000 PUSH1 0x0 MSTORE PUSH1 0x22 PUSH1 0x4 MSTORE PUSH1 0x24 PUSH1 0x0 REVERT JUMPDEST PUSH1 0x0 PUSH1 0x2 DUP3 DIV SWAP1 POP PUSH1 0x1 DUP3 AND DUP1 PUSH3 0x4D1 JUMPI PUSH1 0x7F DUP3 AND SWAP2 POP JUMPDEST PUSH1 0x20 DUP3 LT DUP2 SUB PUSH3 0x4E7 JUMPI PUSH3 0x4E6 PUSH3 0x489 JUMP JUMPDEST JUMPDEST POP SWAP2 SWAP1 POP JUMP JUMPDEST PUSH1 0x0 DUP2 SWAP1 POP DUP2 PUSH1 0x0 MSTORE PUSH1 0x20 PUSH1 0x0 KECCAK256 SWAP1 POP SWAP2 SWAP1 POP JUMP JUMPDEST PUSH1 0x0 PUSH1 0x20 PUSH1 0x1F DUP4 ADD DIV SWAP1 POP SWAP2 SWAP1 POP JUMP JUMPDEST PUSH1 0x0 DUP3 DUP3 SHL SWAP1 POP SWAP3 SWAP2 POP POP JUMP JUMPDEST PUSH1 0x0 PUSH1 0x8 DUP4 MUL PUSH3 0x551 PUSH32 0xFFFFFFFFFFFFFFFFFFFFFFFFFFFFFFFFFFFFFFFFFFFFFFFFFFFFFFFFFFFFFFFF DUP3 PUSH3 0x512 JUMP JUMPDEST PUSH3 0x55D DUP7 DUP4 PUSH3 0x512 JUMP JUMPDEST SWAP6 POP DUP1 NOT DUP5 AND SWAP4 POP DUP1 DUP7 AND DUP5 OR SWAP3 POP POP POP SWAP4 SWAP3 POP POP POP JUMP JUMPDEST PUSH1 0x0 DUP2 SWAP1 POP SWAP2 SWAP1 POP JUMP JUMPDEST PUSH1 0x0 DUP2 SWAP1 POP SWAP2 SWAP1 POP JUMP JUMPDEST PUSH1 0x0 PUSH3 0x5AA PUSH3 0x5A4 PUSH3 0x59E DUP5 PUSH3 0x575 JUMP JUMPDEST PUSH3 0x57F JUMP JUMPDEST PUSH3 0x575 JUMP JUMPDEST SWAP1 POP SWAP2 SWAP1 POP JUMP JUMPDEST PUSH1 0x0 DUP2 SWAP1 POP SWAP2 SWAP1 POP JUMP JUMPDEST PUSH3 0x5C6 DUP4 PUSH3 0x589 JUMP JUMPDEST PUSH3 0x5DE PUSH3 0x5D5 DUP3 PUSH3 0x5B1 JUMP JUMPDEST DUP5 DUP5 SLOAD PUSH3 0x51F JUMP JUMPDEST DUP3 SSTORE POP POP POP POP JUMP JUMPDEST PUSH1 0x0 SWAP1 JUMP JUMPDEST PUSH3 0x5F5 PUSH3 0x5E6 JUMP JUMPDEST PUSH3 0x602 DUP2 DUP5 DUP5 PUSH3 0x5BB JUMP JUMPDEST POP POP POP JUMP JUMPDEST JUMPDEST DUP2 DUP2 LT ISZERO PUSH3 0x62A JUMPI PUSH3 0x61E PUSH1 0x0 DUP3 PUSH3 0x5EB JUMP JUMPDEST PUSH1 0x1 DUP2 ADD SWAP1 POP PUSH3 0x608 JUMP JUMPDEST POP POP JUMP JUMPDEST PUSH1 0x1F DUP3 GT ISZERO PUSH3 0x679 JUMPI PUSH3 0x643 DUP2 PUSH3 0x4ED JUMP JUMPDEST PUSH3 0x64E DUP5 PUSH3 0x502 JUMP JUMPDEST DUP2 ADD PUSH1 0x20 DUP6 LT ISZERO PUSH3 0x65E JUMPI DUP2 SWAP1 POP JUMPDEST PUSH3 0x676 PUSH3 0x66D DUP6 PUSH3 0x502 JUMP JUMPDEST DUP4 ADD DUP3 PUSH3 0x607 JUMP JUMPDEST POP POP JUMPDEST POP POP POP JUMP JUMPDEST PUSH1 0x0 DUP3 DUP3 SHR SWAP1 POP SWAP3 SWAP2 POP POP JUMP JUMPDEST PUSH1 0x0 PUSH3 0x69E PUSH1 0x0 NOT DUP5 PUSH1 0x8 MUL PUSH3 0x67E JUMP JUMPDEST NOT DUP1 DUP4 AND SWAP2 POP POP SWAP3 SWAP2 POP POP JUMP JUMPDEST PUSH1 0x0 PUSH3 0x6B9 DUP4 DUP4 PUSH3 0x68B JUMP JUMPDEST SWAP2 POP DUP3 PUSH1 0x2 MUL DUP3 OR SWAP1 POP SWAP3 SWAP2 POP POP JUMP JUMPDEST PUSH3 0x6D4 DUP3 PUSH3 0x47E JUMP JUMPDEST PUSH8 0xFFFFFFFFFFFFFFFF DUP2 GT ISZERO PUSH3 0x6F0 JUMPI PUSH3 0x6EF PUSH3 0x1C8 JUMP JUMPDEST JUMPDEST PUSH3 0x6FC DUP3 SLOAD PUSH3 0x4B8 JUMP JUMPDEST PUSH3 0x709 DUP3 DUP3 DUP6 PUSH3 0x62E JUMP JUMPDEST PUSH1 0x0 PUSH1 0x20 SWAP1 POP PUSH1 0x1F DUP4 GT PUSH1 0x1 DUP2 EQ PUSH3 0x741 JUMPI PUSH1 0x0 DUP5 ISZERO PUSH3 0x72C JUMPI DUP3 DUP8 ADD MLOAD SWAP1 POP JUMPDEST PUSH3 0x738 DUP6 DUP3 PUSH3 0x6AB JUMP JUMPDEST DUP7 SSTORE POP PUSH3 0x7A8 JUMP JUMPDEST PUSH1 0x1F NOT DUP5 AND PUSH3 0x751 DUP7 PUSH3 0x4ED JUMP JUMPDEST PUSH1 0x0 JUMPDEST DUP3 DUP2 LT ISZERO PUSH3 0x77B JUMPI DUP5 DUP10 ADD MLOAD DUP3 SSTORE PUSH1 0x1 DUP3 ADD SWAP2 POP PUSH1 0x20 DUP6 ADD SWAP5 POP PUSH1 0x20 DUP2 ADD SWAP1 POP PUSH3 0x754 JUMP JUMPDEST DUP7 DUP4 LT ISZERO PUSH3 0x79B JUMPI DUP5 DUP10 ADD MLOAD PUSH3 0x797 PUSH1 0x1F DUP10 AND DUP3 PUSH3 0x68B JUMP JUMPDEST DUP4 SSTORE POP JUMPDEST PUSH1 0x1 PUSH1 0x2 DUP9 MUL ADD DUP9 SSTORE POP POP POP JUMPDEST POP POP POP POP POP POP JUMP JUMPDEST PUSH2 0xD14 DUP1 PUSH3 0x7C0 PUSH1 0x0 CODECOPY PUSH1 0x0 RETURN INVALID PUSH1 0x80 PUSH1 0x40 MSTORE CALLVALUE DUP1 ISZERO PUSH2 0x10 JUMPI PUSH1 0x0 DUP1 REVERT JUMPDEST POP PUSH1 0x4 CALLDATASIZE LT PUSH2 0x9E JUMPI PUSH1 0x0 CALLDATALOAD PUSH1 0xE0 SHR DUP1 PUSH4 0x5DF81330 GT PUSH2 0x66 JUMPI DUP1 PUSH4 0x5DF81330 EQ PUSH2 0x147 JUMPI DUP1 PUSH4 0x62D73EB8 EQ PUSH2 0x177 JUMPI DUP1 PUSH4 0x7ED628BB EQ PUSH2 0x181 JUMPI DUP1 PUSH4 0xF851A440 EQ PUSH2 0x19F JUMPI DUP1 PUSH4 0xFF981099 EQ PUSH2 0x1BD JUMPI PUSH2 0x9E JUMP JUMPDEST DUP1 PUSH4 0x121B93F EQ PUSH2 0xA3 JUMPI DUP1 PUSH4 0x6A49FCE EQ PUSH2 0xBF JUMPI DUP1 PUSH4 0x9EEF43E EQ PUSH2 0xDD JUMPI DUP1 PUSH4 0x3477EE2E EQ PUSH2 0x10D JUMPI DUP1 PUSH4 0x59F78468 EQ PUSH2 0x13D JUMPI JUMPDEST PUSH1 0x0 DUP1 REVERT JUMPDEST PUSH2 0xBD PUSH1 0x4 DUP1 CALLDATASIZE SUB DUP2 ADD SWAP1 PUSH2 0xB8 SWAP2 SWAP1 PUSH2 0x735 JUMP JUMPDEST PUSH2 0x1ED JUMP JUMPDEST STOP JUMPDEST PUSH2 0xC7 PUSH2 0x394 JUMP JUMPDEST PUSH1 0x40 MLOAD PUSH2 0xD4 SWAP2 SWAP1 PUSH2 0x8B4 JUMP JUMPDEST PUSH1 0x40 MLOAD DUP1 SWAP2 SUB SWAP1 RETURN JUMPDEST PUSH2 0xF7 PUSH1 0x4 DUP1 CALLDATASIZE SUB DUP2 ADD SWAP1 PUSH2 0xF2 SWAP2 SWAP1 PUSH2 0x934 JUMP JUMPDEST PUSH2 0x46D JUMP JUMPDEST PUSH1 0x40 MLOAD PUSH2 0x104 SWAP2 SWAP1 PUSH2 0x97C JUMP JUMPDEST PUSH1 0x40 MLOAD DUP1 SWAP2 SUB SWAP1 RETURN JUMPDEST PUSH2 0x127 PUSH1 0x4 DUP1 CALLDATASIZE SUB DUP2 ADD SWAP1 PUSH2 0x122 SWAP2 SWAP1 PUSH2 0x735 JUMP JUMPDEST PUSH2 0x48D JUMP JUMPDEST PUSH1 0x40 MLOAD PUSH2 0x134 SWAP2 SWAP1 PUSH2 0x9E1 JUMP JUMPDEST PUSH1 0x40 MLOAD DUP1 SWAP2 SUB SWAP1 RETURN JUMPDEST PUSH2 0x145 PUSH2 0x539 JUMP JUMPDEST STOP JUMPDEST PUSH2 0x161 PUSH1 0x4 DUP1 CALLDATASIZE SUB DUP2 ADD SWAP1 PUSH2 0x15C SWAP2 SWAP1 PUSH2 0x735 JUMP JUMPDEST PUSH2 0x5E3 JUMP JUMPDEST PUSH1 0x40 MLOAD PUSH2 0x16E SWAP2 SWAP1 PUSH2 0xA12 JUMP JUMPDEST PUSH1 0x40 MLOAD DUP1 SWAP2 SUB SWAP1 RETURN JUMPDEST PUSH2 0x17F PUSH2 0x5FB JUMP JUMPDEST STOP JUMPDEST PUSH2 0x189 PUSH2 0x6A6 JUMP JUMPDEST PUSH1 0x40 MLOAD PUSH2 0x196 SWAP2 SWAP1 PUSH2 0x97C JUMP JUMPDEST PUSH1 0x40 MLOAD DUP1 SWAP2 SUB SWAP1 RETURN JUMPDEST PUSH2 0x1A7 PUSH2 0x6B9 JUMP JUMPDEST PUSH1 0x40 MLOAD PUSH2 0x1B4 SWAP2 SWAP1 PUSH2 0xA3C JUMP JUMPDEST PUSH1 0x40 MLOAD DUP1 SWAP2 SUB SWAP1 RETURN JUMPDEST PUSH2 0x1D7 PUSH1 0x4 DUP1 CALLDATASIZE SUB DUP2 ADD SWAP1 PUSH2 0x1D2 SWAP2 SWAP1 PUSH2 0x735 JUMP JUMPDEST PUSH2 0x6DD JUMP JUMPDEST PUSH1 0x40 MLOAD PUSH2 0x1E4 SWAP2 SWAP1 PUSH2 0xA12 JUMP JUMPDEST PUSH1 0x40 MLOAD DUP1 SWAP2 SUB SWAP1 RETURN JUMPDEST PUSH1 0x0 PUSH1 0x14 SWAP1 SLOAD SWAP1 PUSH2 0x100 EXP SWAP1 DIV PUSH1 0xFF AND PUSH2 0x23C JUMPI PUSH1 0x40 MLOAD PUSH32 0x8C379A000000000000000000000000000000000000000000000000000000000 DUP2 MSTORE PUSH1 0x4 ADD PUSH2 0x233 SWAP1 PUSH2 0xAA3 JUMP JUMPDEST PUSH1 0x40 MLOAD DUP1 SWAP2 SUB SWAP1 REVERT JUMPDEST PUSH1 0x2 PUSH1 0x0 CALLER PUSH20 0xFFFFFFFFFFFFFFFFFFFFFFFFFFFFFFFFFFFFFFFF AND PUSH20 0xFFFFFFFFFFFFFFFFFFFFFFFFFFFFFFFFFFFFFFFF AND DUP2 MSTORE PUSH1 0x20 ADD SWAP1 DUP2 MSTORE PUSH1 0x20 ADD PUSH1 0x0 KECCAK256 PUSH1 0x0 SWAP1 SLOAD SWAP1 PUSH2 0x100 EXP SWAP1 DIV PUSH1 0xFF AND ISZERO PUSH2 0x2C9 JUMPI PUSH1 0x40 MLOAD PUSH32 0x8C379A000000000000000000000000000000000000000000000000000000000 DUP2 MSTORE PUSH1 0x4 ADD PUSH2 0x2C0 SWAP1 PUSH2 0xB0F JUMP JUMPDEST PUSH1 0x40 MLOAD DUP1 SWAP2 SUB SWAP1 REVERT JUMPDEST PUSH1 0x1 DUP1 SLOAD SWAP1 POP DUP2 LT PUSH2 0x310 JUMPI PUSH1 0x40 MLOAD PUSH32 0x8C379A000000000000000000000000000000000000000000000000000000000 DUP2 MSTORE PUSH1 0x4 ADD PUSH2 0x307 SWAP1 PUSH2 0xB7B JUMP JUMPDEST PUSH1 0x40 MLOAD DUP1 SWAP2 SUB SWAP1 REVERT JUMPDEST PUSH1 0x1 PUSH1 0x2 PUSH1 0x0 CALLER PUSH20 0xFFFFFFFFFFFFFFFFFFFFFFFFFFFFFFFFFFFFFFFF AND PUSH20 0xFFFFFFFFFFFFFFFFFFFFFFFFFFFFFFFFFFFFFFFF AND DUP2 MSTORE PUSH1 0x20 ADD SWAP1 DUP2 MSTORE PUSH1 0x20 ADD PUSH1 0x0 KECCAK256 PUSH1 0x0 PUSH2 0x100 EXP DUP2 SLOAD DUP2 PUSH1 0xFF MUL NOT AND SWAP1 DUP4 ISZERO ISZERO MUL OR SWAP1 SSTORE POP PUSH1 0x3 PUSH1 0x0 DUP3 DUP2 MSTORE PUSH1 0x20 ADD SWAP1 DUP2 MSTORE PUSH1 0x20 ADD PUSH1 0x0 KECCAK256 PUSH1 0x0 DUP2 SLOAD DUP1 SWAP3 SWAP2 SWAP1 PUSH2 0x38C SWAP1 PUSH2 0xBCA JUMP JUMPDEST SWAP2 SWAP1 POP SSTORE POP POP JUMP JUMPDEST PUSH1 0x60 PUSH1 0x1 DUP1 SLOAD DUP1 PUSH1 0x20 MUL PUSH1 0x20 ADD PUSH1 0x40 MLOAD SWAP1 DUP2 ADD PUSH1 0x40 MSTORE DUP1 SWAP3 SWAP2 SWAP1 DUP2 DUP2 MSTORE PUSH1 0x20 ADD PUSH1 0x0 SWAP1 JUMPDEST DUP3 DUP3 LT ISZERO PUSH2 0x464 JUMPI DUP4 DUP3 SWAP1 PUSH1 0x0 MSTORE PUSH1 0x20 PUSH1 0x0 KECCAK256 ADD DUP1 SLOAD PUSH2 0x3D7 SWAP1 PUSH2 0xC41 JUMP JUMPDEST DUP1 PUSH1 0x1F ADD PUSH1 0x20 DUP1 SWAP2 DIV MUL PUSH1 0x20 ADD PUSH1 0x40 MLOAD SWAP1 DUP2 ADD PUSH1 0x40 MSTORE DUP1 SWAP3 SWAP2 SWAP1 DUP2 DUP2 MSTORE PUSH1 0x20 ADD DUP3 DUP1 SLOAD PUSH2 0x403 SWAP1 PUSH2 0xC41 JUMP JUMPDEST DUP1 ISZERO PUSH2 0x450 JUMPI DUP1 PUSH1 0x1F LT PUSH2 0x425 JUMPI PUSH2 0x100 DUP1 DUP4 SLOAD DIV MUL DUP4 MSTORE SWAP2 PUSH1 0x20 ADD SWAP2 PUSH2 0x450 JUMP JUMPDEST DUP3 ADD SWAP2 SWAP1 PUSH1 0x0 MSTORE PUSH1 0x20 PUSH1 0x0 KECCAK256 SWAP1 JUMPDEST DUP2 SLOAD DUP2 MSTORE SWAP1 PUSH1 0x1 ADD SWAP1 PUSH1 0x20 ADD DUP1 DUP4 GT PUSH2 0x433 JUMPI DUP3 SWAP1 SUB PUSH1 0x1F AND DUP3 ADD SWAP2 JUMPDEST POP POP POP POP POP DUP2 MSTORE PUSH1 0x20 ADD SWAP1 PUSH1 0x1 ADD SWAP1 PUSH2 0x3B8 JUMP JUMPDEST POP POP POP POP SWAP1 POP SWAP1 JUMP JUMPDEST PUSH1 0x2 PUSH1 0x20 MSTORE DUP1 PUSH1 0x0 MSTORE PUSH1 0x40 PUSH1 0x0 KECCAK256 PUSH1 0x0 SWAP2 POP SLOAD SWAP1 PUSH2 0x100 EXP SWAP1 DIV PUSH1 0xFF AND DUP2 JUMP JUMPDEST PUSH1 0x1 DUP2 DUP2 SLOAD DUP2 LT PUSH2 0x49D JUMPI PUSH1 0x0 DUP1 REVERT JUMPDEST SWAP1 PUSH1 0x0 MSTORE PUSH1 0x20 PUSH1 0x0 KECCAK256 ADD PUSH1 0x0 SWAP2 POP SWAP1 POP DUP1 SLOAD PUSH2 0x4B8 SWAP1 PUSH2 0xC41 JUMP JUMPDEST DUP1 PUSH1 0x1F ADD PUSH1 0x20 DUP1 SWAP2 DIV MUL PUSH1 0x20 ADD PUSH1 0x40 MLOAD SWAP1 DUP2 ADD PUSH1 0x40 MSTORE DUP1 SWAP3 SWAP2 SWAP1 DUP2 DUP2 MSTORE PUSH1 0x20 ADD DUP3 DUP1 SLOAD PUSH2 0x4E4 SWAP1 PUSH2 0xC41 JUMP JUMPDEST DUP1 ISZERO PUSH2 0x531 JUMPI DUP1 PUSH1 0x1F LT PUSH2 0x506 JUMPI PUSH2 0x100 DUP1 DUP4 SLOAD DIV MUL DUP4 MSTORE SWAP2 PUSH1 0x20 ADD SWAP2 PUSH2 0x531 JUMP JUMPDEST DUP3 ADD SWAP2 SWAP1 PUSH1 0x0 MSTORE PUSH1 0x20 PUSH1 0x0 KECCAK256 SWAP1 JUMPDEST DUP2 SLOAD DUP2 MSTORE SWAP1 PUSH1 0x1 ADD SWAP1 PUSH1 0x20 ADD DUP1 DUP4 GT PUSH2 0x514 JUMPI DUP3 SWAP1 SUB PUSH1 0x1F AND DUP3 ADD SWAP2 JUMPDEST POP POP POP POP POP DUP2 JUMP JUMPDEST PUSH1 0x0 DUP1 SLOAD SWAP1 PUSH2 0x100 EXP SWAP1 DIV PUSH20 0xFFFFFFFFFFFFFFFFFFFFFFFFFFFFFFFFFFFFFFFF AND PUSH20 0xFFFFFFFFFFFFFFFFFFFFFFFFFFFFFFFFFFFFFFFF AND CALLER PUSH20 0xFFFFFFFFFFFFFFFFFFFFFFFFFFFFFFFFFFFFFFFF AND EQ PUSH2 0x5C7 JUMPI PUSH1 0x40 MLOAD PUSH32 0x8C379A000000000000000000000000000000000000000000000000000000000 DUP2 MSTORE PUSH1 0x4 ADD PUSH2 0x5BE SWAP1 PUSH2 0xCBE JUMP JUMPDEST PUSH1 0x40 MLOAD DUP1 SWAP2 SUB SWAP1 REVERT JUMPDEST PUSH1 0x0 DUP1 PUSH1 0x14 PUSH2 0x100 EXP DUP2 SLOAD DUP2 PUSH1 0xFF MUL NOT AND SWAP1 DUP4 ISZERO ISZERO MUL OR SWAP1 SSTORE POP JUMP JUMPDEST PUSH1 0x3 PUSH1 0x20 MSTORE DUP1 PUSH1 0x0 MSTORE PUSH1 0x40 PUSH1 0x0 KECCAK256 PUSH1 0x0 SWAP2 POP SWAP1 POP SLOAD DUP2 JUMP JUMPDEST PUSH1 0x0 DUP1 SLOAD SWAP1 PUSH2 0x100 EXP SWAP1 DIV PUSH20 0xFFFFFFFFFFFFFFFFFFFFFFFFFFFFFFFFFFFFFFFF AND PUSH20 0xFFFFFFFFFFFFFFFFFFFFFFFFFFFFFFFFFFFFFFFF AND CALLER PUSH20 0xFFFFFFFFFFFFFFFFFFFFFFFFFFFFFFFFFFFFFFFF AND EQ PUSH2 0x689 JUMPI PUSH1 0x40 MLOAD PUSH32 0x8C379A000000000000000000000000000000000000000000000000000000000 DUP2 MSTORE PUSH1 0x4 ADD PUSH2 0x680 SWAP1 PUSH2 0xCBE JUMP JUMPDEST PUSH1 0x40 MLOAD DUP1 SWAP2 SUB SWAP1 REVERT JUMPDEST PUSH1 0x1 PUSH1 0x0 PUSH1 0x14 PUSH2 0x100 EXP DUP2 SLOAD DUP2 PUSH1 0xFF MUL NOT AND SWAP1 DUP4 ISZERO ISZERO MUL OR SWAP1 SSTORE POP JUMP JUMPDEST PUSH1 0x0 PUSH1 0x14 SWAP1 SLOAD SWAP1 PUSH2 0x100 EXP SWAP1 DIV PUSH1 0xFF AND DUP2 JUMP JUMPDEST PUSH1 0x0 DUP1 SLOAD SWAP1 PUSH2 0x100 EXP SWAP1 DIV PUSH20 0xFFFFFFFFFFFFFFFFFFFFFFFFFFFFFFFFFFFFFFFF AND DUP2 JUMP JUMPDEST PUSH1 0x0 PUSH1 0x3 PUSH1 0x0 DUP4 DUP2 MSTORE PUSH1 0x20 ADD SWAP1 DUP2 MSTORE PUSH1 0x20 ADD PUSH1 0x0 KECCAK256 SLOAD SWAP1 POP SWAP2 SWAP1 POP JUMP JUMPDEST PUSH1 0x0 DUP1 REVERT JUMPDEST PUSH1 0x0 DUP2 SWAP1 POP SWAP2 SWAP1 POP JUMP JUMPDEST PUSH2 0x712 DUP2 PUSH2 0x6FF JUMP JUMPDEST DUP2 EQ PUSH2 0x71D JUMPI PUSH1 0x0 DUP1 REVERT JUMPDEST POP JUMP JUMPDEST PUSH1 0x0 DUP2 CALLDATALOAD SWAP1 POP PUSH2 0x72F DUP2 PUSH2 0x709 JUMP JUMPDEST SWAP3 SWAP2 POP POP JUMP JUMPDEST PUSH1 0x0 PUSH1 0x20 DUP3 DUP5 SUB SLT ISZERO PUSH2 0x74B JUMPI PUSH2 0x74A PUSH2 0x6FA JUMP JUMPDEST JUMPDEST PUSH1 0x0 PUSH2 0x759 DUP5 DUP3 DUP6 ADD PUSH2 0x720 JUMP JUMPDEST SWAP2 POP POP SWAP3 SWAP2 POP POP JUMP JUMPDEST PUSH1 0x0 DUP2 MLOAD SWAP1 POP SWAP2 SWAP1 POP JUMP JUMPDEST PUSH1 0x0 DUP3 DUP3 MSTORE PUSH1 0x20 DUP3 ADD SWAP1 POP SWAP3 SWAP2 POP POP JUMP JUMPDEST PUSH1 0x0 DUP2 SWAP1 POP PUSH1 0x20 DUP3 ADD SWAP1 POP SWAP2 SWAP1 POP JUMP JUMPDEST PUSH1 0x0 DUP2 MLOAD SWAP1 POP SWAP2 SWAP1 POP JUMP JUMPDEST PUSH1 0x0 DUP3 DUP3 MSTORE PUSH1 0x20 DUP3 ADD SWAP1 POP SWAP3 SWAP2 POP POP JUMP JUMPDEST PUSH1 0x0 JUMPDEST DUP4 DUP2 LT ISZERO PUSH2 0x7C8 JUMPI DUP1 DUP3 ADD MLOAD DUP2 DUP5 ADD MSTORE PUSH1 0x20 DUP2 ADD SWAP1 POP PUSH2 0x7AD JUMP JUMPDEST PUSH1 0x0 DUP5 DUP5 ADD MSTORE POP POP POP POP JUMP JUMPDEST PUSH1 0x0 PUSH1 0x1F NOT PUSH1 0x1F DUP4 ADD AND SWAP1 POP SWAP2 SWAP1 POP JUMP JUMPDEST PUSH1 0x0 PUSH2 0x7F0 DUP3 PUSH2 0x78E JUMP JUMPDEST PUSH2 0x7FA DUP2 DUP6 PUSH2 0x799 JUMP JUMPDEST SWAP4 POP PUSH2 0x80A DUP2 DUP6 PUSH1 0x20 DUP7 ADD PUSH2 0x7AA JUMP JUMPDEST PUSH2 0x813 DUP2 PUSH2 0x7D4 JUMP JUMPDEST DUP5 ADD SWAP2 POP POP SWAP3 SWAP2 POP POP JUMP JUMPDEST PUSH1 0x0 PUSH2 0x82A DUP4 DUP4 PUSH2 0x7E5 JUMP JUMPDEST SWAP1 POP SWAP3 SWAP2 POP POP JUMP JUMPDEST PUSH1 0x0 PUSH1 0x20 DUP3 ADD SWAP1 POP SWAP2 SWAP1 POP JUMP JUMPDEST PUSH1 0x0 PUSH2 0x84A DUP3 PUSH2 0x762 JUMP JUMPDEST PUSH2 0x854 DUP2 DUP6 PUSH2 0x76D JUMP JUMPDEST SWAP4 POP DUP4 PUSH1 0x20 DUP3 MUL DUP6 ADD PUSH2 0x866 DUP6 PUSH2 0x77E JUMP JUMPDEST DUP1 PUSH1 0x0 JUMPDEST DUP6 DUP2 LT ISZERO PUSH2 0x8A2 JUMPI DUP5 DUP5 SUB DUP10 MSTORE DUP2 MLOAD PUSH2 0x883 DUP6 DUP3 PUSH2 0x81E JUMP JUMPDEST SWAP5 POP PUSH2 0x88E DUP4 PUSH2 0x832 JUMP JUMPDEST SWAP3 POP PUSH1 0x20 DUP11 ADD SWAP10 POP POP PUSH1 0x1 DUP2 ADD SWAP1 POP PUSH2 0x86A JUMP JUMPDEST POP DUP3 SWAP8 POP DUP8 SWAP6 POP POP POP POP POP POP SWAP3 SWAP2 POP POP JUMP JUMPDEST PUSH1 0x0 PUSH1 0x20 DUP3 ADD SWAP1 POP DUP2 DUP2 SUB PUSH1 0x0 DUP4 ADD MSTORE PUSH2 0x8CE DUP2 DUP5 PUSH2 0x83F JUMP JUMPDEST SWAP1 POP SWAP3 SWAP2 POP POP JUMP JUMPDEST PUSH1 0x0 PUSH20 0xFFFFFFFFFFFFFFFFFFFFFFFFFFFFFFFFFFFFFFFF DUP3 AND SWAP1 POP SWAP2 SWAP1 POP JUMP JUMPDEST PUSH1 0x0 PUSH2 0x901 DUP3 PUSH2 0x8D6 JUMP JUMPDEST SWAP1 POP SWAP2 SWAP1 POP JUMP JUMPDEST PUSH2 0x911 DUP2 PUSH2 0x8F6 JUMP JUMPDEST DUP2 EQ PUSH2 0x91C JUMPI PUSH1 0x0 DUP1 REVERT JUMPDEST POP JUMP JUMPDEST PUSH1 0x0 DUP2 CALLDATALOAD SWAP1 POP PUSH2 0x92E DUP2 PUSH2 0x908 JUMP JUMPDEST SWAP3 SWAP2 POP POP JUMP JUMPDEST PUSH1 0x0 PUSH1 0x20 DUP3 DUP5 SUB SLT ISZERO PUSH2 0x94A JUMPI PUSH2 0x949 PUSH2 0x6FA JUMP JUMPDEST JUMPDEST PUSH1 0x0 PUSH2 0x958 DUP5 DUP3 DUP6 ADD PUSH2 0x91F JUMP JUMPDEST SWAP2 POP POP SWAP3 SWAP2 POP POP JUMP JUMPDEST PUSH1 0x0 DUP2 ISZERO ISZERO SWAP1 POP SWAP2 SWAP1 POP JUMP JUMPDEST PUSH2 0x976 DUP2 PUSH2 0x961 JUMP JUMPDEST DUP3 MSTORE POP POP JUMP JUMPDEST PUSH1 0x0 PUSH1 0x20 DUP3 ADD SWAP1 POP PUSH2 0x991 PUSH1 0x0 DUP4 ADD DUP5 PUSH2 0x96D JUMP JUMPDEST SWAP3 SWAP2 POP POP JUMP JUMPDEST PUSH1 0x0 DUP3 DUP3 MSTORE PUSH1 0x20 DUP3 ADD SWAP1 POP SWAP3 SWAP2 POP POP JUMP JUMPDEST PUSH1 0x0 PUSH2 0x9B3 DUP3 PUSH2 0x78E JUMP JUMPDEST PUSH2 0x9BD DUP2 DUP6 PUSH2 0x997 JUMP JUMPDEST SWAP4 POP PUSH2 0x9CD DUP2 DUP6 PUSH1 0x20 DUP7 ADD PUSH2 0x7AA JUMP JUMPDEST PUSH2 0x9D6 DUP2 PUSH2 0x7D4 JUMP JUMPDEST DUP5 ADD SWAP2 POP POP SWAP3 SWAP2 POP POP JUMP JUMPDEST PUSH1 0x0 PUSH1 0x20 DUP3 ADD SWAP1 POP DUP2 DUP2 SUB PUSH1 0x0 DUP4 ADD MSTORE PUSH2 0x9FB DUP2 DUP5 PUSH2 0x9A8 JUMP JUMPDEST SWAP1 POP SWAP3 SWAP2 POP POP JUMP JUMPDEST PUSH2 0xA0C DUP2 PUSH2 0x6FF JUMP JUMPDEST DUP3 MSTORE POP POP JUMP JUMPDEST PUSH1 0x0 PUSH1 0x20 DUP3 ADD SWAP1 POP PUSH2 0xA27 PUSH1 0x0 DUP4 ADD DUP5 PUSH2 0xA03 JUMP JUMPDEST SWAP3 SWAP2 POP POP JUMP JUMPDEST PUSH2 0xA36 DUP2 PUSH2 0x8F6 JUMP JUMPDEST DUP3 MSTORE POP POP JUMP JUMPDEST PUSH1 0x0 PUSH1 0x20 DUP3 ADD SWAP1 POP PUSH2 0xA51 PUSH1 0x0 DUP4 ADD DUP5 PUSH2 0xA2D JUMP JUMPDEST SWAP3 SWAP2 POP POP JUMP JUMPDEST PUSH32 0x456C656374696F6E206E6F742061637469766500000000000000000000000000 PUSH1 0x0 DUP3 ADD MSTORE POP JUMP JUMPDEST PUSH1 0x0 PUSH2 0xA8D PUSH1 0x13 DUP4 PUSH2 0x997 JUMP JUMPDEST SWAP2 POP PUSH2 0xA98 DUP3 PUSH2 0xA57 JUMP JUMPDEST PUSH1 0x20 DUP3 ADD SWAP1 POP SWAP2 SWAP1 POP JUMP JUMPDEST PUSH1 0x0 PUSH1 0x20 DUP3 ADD SWAP1 POP DUP2 DUP2 SUB PUSH1 0x0 DUP4 ADD MSTORE PUSH2 0xABC DUP2 PUSH2 0xA80 JUMP JUMPDEST SWAP1 POP SWAP2 SWAP1 POP JUMP JUMPDEST PUSH32 0x416C726561647920766F74656400000000000000000000000000000000000000 PUSH1 0x0 DUP3 ADD MSTORE POP JUMP JUMPDEST PUSH1 0x0 PUSH2 0xAF9 PUSH1 0xD DUP4 PUSH2 0x997 JUMP JUMPDEST SWAP2 POP PUSH2 0xB04 DUP3 PUSH2 0xAC3 JUMP JUMPDEST PUSH1 0x20 DUP3 ADD SWAP1 POP SWAP2 SWAP1 POP JUMP JUMPDEST PUSH1 0x0 PUSH1 0x20 DUP3 ADD SWAP1 POP DUP2 DUP2 SUB PUSH1 0x0 DUP4 ADD MSTORE PUSH2 0xB28 DUP2 PUSH2 0xAEC JUMP JUMPDEST SWAP1 POP SWAP2 SWAP1 POP JUMP JUMPDEST PUSH32 0x496E76616C69642063616E646964617465000000000000000000000000000000 PUSH1 0x0 DUP3 ADD MSTORE POP JUMP JUMPDEST PUSH1 0x0 PUSH2 0xB65 PUSH1 0x11 DUP4 PUSH2 0x997 JUMP JUMPDEST SWAP2 POP PUSH2 0xB70 DUP3 PUSH2 0xB2F JUMP JUMPDEST PUSH1 0x20 DUP3 ADD SWAP1 POP SWAP2 SWAP1 POP JUMP JUMPDEST PUSH1 0x0 PUSH1 0x20 DUP3 ADD SWAP1 POP DUP2 DUP2 SUB PUSH1 0x0 DUP4 ADD MSTORE PUSH2 0xB94 DUP2 PUSH2 0xB58 JUMP JUMPDEST SWAP1 POP SWAP2 SWAP1 POP JUMP JUMPDEST PUSH32 0x4E487B7100000000000000000000000000000000000000000000000000000000 PUSH1 0x0 MSTORE PUSH1 0x11 PUSH1 0x4 MSTORE PUSH1 0x24 PUSH1 0x0 REVERT JUMPDEST PUSH1 0x0 PUSH2 0xBD5 DUP3 PUSH2 0x6FF JUMP JUMPDEST SWAP2 POP PUSH32 0xFFFFFFFFFFFFFFFFFFFFFFFFFFFFFFFFFFFFFFFFFFFFFFFFFFFFFFFFFFFFFFFF DUP3 SUB PUSH2 0xC07 JUMPI PUSH2 0xC06 PUSH2 0xB9B JUMP JUMPDEST JUMPDEST PUSH1 0x1 DUP3 ADD SWAP1 POP SWAP2 SWAP1 POP JUMP JUMPDEST PUSH32 0x4E487B7100000000000000000000000000000000000000000000000000000000 PUSH1 0x0 MSTORE PUSH1 0x22 PUSH1 0x4 MSTORE PUSH1 0x24 PUSH1 0x0 REVERT JUMPDEST PUSH1 0x0 PUSH1 0x2 DUP3 DIV SWAP1 POP PUSH1 0x1 DUP3 AND DUP1 PUSH2 0xC59 JUMPI PUSH1 0x7F DUP3 AND SWAP2 POP JUMPDEST PUSH1 0x20 DUP3 LT DUP2 SUB PUSH2 0xC6C JUMPI PUSH2 0xC6B PUSH2 0xC12 JUMP JUMPDEST JUMPDEST POP SWAP2 SWAP1 POP JUMP JUMPDEST PUSH32 0x4F6E6C792061646D696E00000000000000000000000000000000000000000000 PUSH1 0x0 DUP3 ADD MSTORE POP JUMP JUMPDEST PUSH1 0x0 PUSH2 0xCA8 PUSH1 0xA DUP4 PUSH2 0x997 JUMP JUMPDEST SWAP2 POP PUSH2 0xCB3 DUP3 PUSH2 0xC72 JUMP JUMPDEST PUSH1 0x20 DUP3 ADD SWAP1 POP SWAP2 SWAP1 POP JUMP JUMPDEST PUSH1 0x0 PUSH1 0x20 DUP3 ADD SWAP1 POP DUP2 DUP2 SUB PUSH1 0x0 DUP4 ADD MSTORE PUSH2 0xCD7 DUP2 PUSH2 0xC9B JUMP JUMPDEST SWAP1 POP SWAP2 SWAP1 POP JUMP INVALID LOG2 PUSH5 0x6970667358 0x22 SLT KECCAK256 0xAC 0xED PUSH8 0xD920E63127F2CA51 0xBD 0xC0 PUSH2 0xB9F1 0xB7 0xC7 BALANCE MCOPY CREATE2 PUSH28 0x1B556B8977446F1CB34664736F6C6343000818003300000000000000 "},"methodIdentifiers":{"admin()":"f851a440","candidates(uint256)":"3477ee2e","electionActive()":"7ed628bb","endElection()":"59f78468","getCandidates()":"06a49fce","getVotes(uint256)":"ff981099","hasVoted(address)":"09eef43e","startElection()":"62d73eb8","vote(uint256)":"0121b93f","votes(uint256)":"5df81330"}}}}}