{
  "_format": "hh-sol-artifact-1",
  "contractName": "SecureVoting",
  "sourceName": "contracts/SecureVoting.sol",
  "abi": [
    {
      "inputs": [
        {
          "internalType": "string[]",
          "name": "_candidates",
          "type": "string[]"
        }
      ],
      "stateMutability": "nonpayable",
      "type": "constructor"
    },
    {
      "inputs": [],
      "name": "admin",
      "outputs": [
        {
          "internalType": "address",
          "name": "",
          "type": "address"
        }
      ],
      "stateMutability": "view",
      "type": "function"
    },
    {
      "inputs": [
        {
          "internalType": "uint256",
          "name": "",
          "type": "uint256"
        }
      ],
      "name": "candidates",
      "outputs": [
        {
          "internalType": "string",
          "name": "",
          "type": "string"
        }
      ],
      "stateMutability": "view",
      "type": "function"
    },
    {
      "inputs": [],
      "name": "electionActive",
      "outputs": [
        {
          "internalType": "bool",
          "name": "",
          "type": "bool"
        }
      ],
      "stateMutability": "view",
      "type": "function"
    },
    {
      "inputs": [],
      "name": "endElection",
      "outputs": [],
      "stateMutability": "nonpayable",
      "type": "function"
    },
    {
      "inputs": [],
      "name": "getCandidates",
      "outputs": [
        {
          "internalType": "string[]",
          "name": "",
          "type": "string[]"
        }
      ],
      "stateMutability": "view",
      "type": "function"
    },
    {
      "inputs": [
        {
          "internalType": "uint256",
          "name": "candidateId",
          "type": "uint256"
        }
      ],
      "name": "getVotes",
      "outputs": [
        {
          "internalType": "uint256",
          "name": "",
          "type": "uint256"
        }
      ],
      "stateMutability": "view",
      "type": "function"
    },
    {
      "inputs": [
        {
          "internalType": "address",
          "name": "",
          "type": "address"
        }
      ],
      "name": "hasVoted",
      "outputs": [
        {
          "internalType": "bool",
          "name": "",
          "type": "bool"
        }
      ],
      "stateMutability": "view",
      "type": "function"
    },
    {
      "inputs": [],
      "name": "startElection",
      "outputs": [],
      "stateMutability": "nonpayable",
      "type": "function"
    },
    {
      "inputs": [
        {
          "internalType": "uint256",
          "name": "candidateId",
          "type": "uint256"
        }
      ],
      "name": "vote",
      "outputs": [],
      "stateMutability": "nonpayable",
      "type": "function"
    },
    {
      "inputs": [
        {
          "internalType": "uint256",
          "name": "",
          "type": "uint256"
        }
      ],
      "name": "votes",
      "outputs": [
        {
          "internalType": "uint256",
          "name": "",
          "type": "uint256"
        }
      ],
      "stateMutability": "view",
      "type": "function"
    }
  ],
  "bytecode": "0x60806040523480156200001157600080fd5b50604051620014d4380380620014d483398181016040528101906200003791906200042d565b336000806101000a81548173ffffffffffffffffffffffffffffffffffffffff021916908373ffffffffffffffffffffffffffffffffffffffff16021790555080600190805190602001906200008f929190620000b1565b5060008060146101000a81548160ff02191690831515021790555050620007b0565b828054828255906000526020600020908101928215620000fe579160200282015b82811115620000fd578251829081620000ec9190620006c9565b5091602001919060010190620000d2565b5b5090506200010d919062000111565b5090565b5b808211156200013557600081816200012b919062000139565b5060010162000112565b5090565b5080546200014790620004b8565b6000825580601f106200015b57506200017c565b601f0160209004906000526020600020908101906200017b91906200017f565b5b50565b5b808211156200019a57600081600090555060010162000180565b5090565b6000604051905090565b600080fd5b600080fd5b600080fd5b6000601f19601f8301169050919050565b7f4e487b7100000000000000000000000000000000000000000000000000000000600052604160045260246000fd5b6200020282620001b7565b810181811067ffffffffffffffff82111715620002245762000223620001c8565b5b80604052505050565b6000620002396200019e565b9050620002478282620001f7565b919050565b600067ffffffffffffffff8211156200026a5762000269620001c8565b5b602082029050602081019050919050565b600080fd5b600080fd5b600067ffffffffffffffff821115620002a357620002a2620001c8565b5b620002ae82620001b7565b9050602081019050919050565b60005b83811015620002db578082015181840152602081019050620002be565b60008484015250505050565b6000620002fe620002f88462000285565b6200022d565b9050828152602081018484840111156200031d576200031c62000280565b5b6200032a848285620002bb565b509392505050565b600082601f8301126200034a5762000349620001b2565b5b81516200035c848260208601620002e7565b91505092915050565b60006200037c62000376846200024c565b6200022d565b90508083825260208201905060208402830185811115620003a257620003a16200027b565b5b835b81811015620003f057805167ffffffffffffffff811115620003cb57620003ca620001b2565b5b808601620003da898262000332565b85526020850194505050602081019050620003a4565b5050509392505050565b600082601f830112620004125762000411620001b2565b5b81516200042484826020860162000365565b91505092915050565b600060208284031215620004465762000445620001a8565b5b600082015167ffffffffffffffff811115620004675762000466620001ad565b5b6200047584828501620003fa565b91505092915050565b600081519050919050565b7f4e487b7100000000000000000000000000000000000000000000000000000000600052602260045260246000fd5b60006002820490506001821680620004d157607f821691505b602082108103620004e757620004e662000489565b5b50919050565b60008190508160005260206000209050919050565b60006020601f8301049050919050565b600082821b905092915050565b600060088302620005517fffffffffffffffffffffffffffffffffffffffffffffffffffffffffffffffff8262000512565b6200055d868362000512565b95508019841693508086168417925050509392505050565b6000819050919050565b6000819050919050565b6000620005aa620005a46200059e8462000575565b6200057f565b62000575565b9050919050565b6000819050919050565b620005c68362000589565b620005de620005d582620005b1565b8484546200051f565b825550505050565b600090565b620005f5620005e6565b62000602818484620005bb565b505050565b5b818110156200062a576200061e600082620005eb565b60018101905062000608565b5050565b601f82111562000679576200064381620004ed565b6200064e8462000502565b810160208510156200065e578190505b620006766200066d8562000502565b83018262000607565b50505b505050565b600082821c905092915050565b60006200069e600019846008026200067e565b1980831691505092915050565b6000620006b983836200068b565b9150826002028217905092915050565b620006d4826200047e565b67ffffffffffffffff811115620006f057620006ef620001c8565b5b620006fc8254620004b8565b620007098282856200062e565b600060209050601f8311600181146200074157600084156200072c578287015190505b620007388582620006ab565b865550620007a8565b601f1984166200075186620004ed565b60005b828110156200077b5784890151825560018201915060208501945060208101905062000754565b868310156200079b578489015162000797601f8916826200068b565b8355505b6001600288020188555050505b505050505050565b610d1480620007c06000396000f3fe608060405234801561001057600080fd5b506004361061009e5760003560e01c80635df81330116100665780635df813301461014757806362d73eb8146101775780637ed628bb14610181578063f851a4401461019f578063ff981099146101bd5761009e565b80630121b93f146100a357806306a49fce146100bf57806309eef43e146100dd5780633477ee2e1461010d57806359f784681461013d575b600080fd5b6100bd60048036038101906100b89190610735565b6101ed565b005b6100c7610394565b6040516100d491906108b4565b60405180910390f35b6100f760048036038101906100f29190610934565b61046d565b604051610104919061097c565b60405180910390f35b61012760048036038101906101229190610735565b61048d565b60405161013491906109e1565b60405180910390f35b610145610539565b005b610161600480360381019061015c9190610735565b6105e3565b60405161016e9190610a12565b60405180910390f35b61017f6105fb565b005b6101896106a6565b604051610196919061097c565b60405180910390f35b6101a76106b9565b6040516101b49190610a3c565b60405180910390f35b6101d760048036038101906101d29190610735565b6106dd565b6040516101e49190610a12565b60405180910390f35b600060149054906101000a900460ff1661023c576040517f08c379a000000000000000000000000000000000000000000000000000000000815260040161023390610aa3565b60405180910390fd5b600260003373ffffffffffffffffffffffffffffffffffffffff1673ffffffffffffffffffffffffffffffffffffffff16815260200190815260200160002060009054906101000a900460ff16156102c9576040517f08c379a00000000000000000000000000000000000000000000000000000000081526004016102c090610b0f565b60405180910390fd5b6001805490508110610310576040517f08c379a000000000000000000000000000000000000000000000000000000000815260040161030790610b7b565b60405180910390fd5b6001600260003373ffffffffffffffffffffffffffffffffffffffff1673ffffffffffffffffffffffffffffffffffffffff16815260200190815260200160002060006101000a81548160ff02191690831515021790555060036000828152602001908152602001600020600081548092919061038c90610bca565b919050555050565b60606001805480602002602001604051908101604052809291908181526020016000905b828210156104645783829060005260206000200180546103d790610c41565b80601f016020809104026020016040519081016040528092919081815260200182805461040390610c41565b80156104505780601f1061042557610100808354040283529160200191610450565b820191906000526020600020905b81548152906001019060200180831161043357829003601f168201915b5050505050815260200190600101906103b8565b50505050905090565b60026020528060005260406000206000915054906101000a900460ff1681565b6001818154811061049d57600080fd5b9060005260206000200160009150905080546104b890610c41565b80601f01602080910402602001604051908101604052809291908181526020018280546104e490610c41565b80156105315780601f1061050657610100808354040283529160200191610531565b820191906000526020600020905b81548152906001019060200180831161051457829003601f168201915b505050505081565b60008054906101000a900473ffffffffffffffffffffffffffffffffffffffff1673ffffffffffffffffffffffffffffffffffffffff163373ffffffffffffffffffffffffffffffffffffffff16146105c7576040517f08c379a00000000000000000000000000000000000000000000000000000000081526004016105be90610cbe565b60405180910390fd5b60008060146101000a81548160ff021916908315150217905550565b60036020528060005260406000206000915090505481565b60008054906101000a900473ffffffffffffffffffffffffffffffffffffffff1673ffffffffffffffffffffffffffffffffffffffff163373ffffffffffffffffffffffffffffffffffffffff1614610689576040517f08c379a000000000000000000000000000000000000000000000000000000000815260040161068090610cbe565b60405180910390fd5b6001600060146101000a81548160ff021916908315150217905550565b600060149054906101000a900460ff1681565b60008054906101000a900473ffffffffffffffffffffffffffffffffffffffff1681565b600060036000838152602001908152602001600020549050919050565b600080fd5b6000819050919050565b610712816106ff565b811461071d57600080fd5b50565b60008135905061072f81610709565b92915050565b60006020828403121561074b5761074a6106fa565b5b600061075984828501610720565b91505092915050565b600081519050919050565b600082825260208201905092915050565b6000819050602082019050919050565b600081519050919050565b600082825260208201905092915050565b60005b838110156107c85780820151818401526020810190506107ad565b60008484015250505050565b6000601f19601f8301169050919050565b60006107f08261078e565b6107fa8185610799565b935061080a8185602086016107aa565b610813816107d4565b840191505092915050565b600061082a83836107e5565b905092915050565b6000602082019050919050565b600061084a82610762565b610854818561076d565b9350836020820285016108668561077e565b8060005b858110156108a25784840389528151610883858261081e565b945061088e83610832565b925060208a0199505060018101905061086a565b50829750879550505050505092915050565b600060208201905081810360008301526108ce818461083f565b905092915050565b600073ffffffffffffffffffffffffffffffffffffffff82169050919050565b6000610901826108d6565b9050919050565b610911816108f6565b811461091c57600080fd5b50565b60008135905061092e81610908565b92915050565b60006020828403121561094a576109496106fa565b5b60006109588482850161091f565b91505092915050565b60008115159050919050565b61097681610961565b82525050565b6000602082019050610991600083018461096d565b92915050565b600082825260208201905092915050565b60006109b38261078e565b6109bd8185610997565b93506109cd8185602086016107aa565b6109d6816107d4565b840191505092915050565b600060208201905081810360008301526109fb81846109a8565b905092915050565b610a0c816106ff565b82525050565b6000602082019050610a276000830184610a03565b92915050565b610a36816108f6565b82525050565b6000602082019050610a516000830184610a2d565b92915050565b7f456c656374696f6e206e6f742061637469766500000000000000000000000000600082015250565b6000610a8d601383610997565b9150610a9882610a57565b602082019050919050565b60006020820190508181036000830152610abc81610a80565b9050919050565b7f416c726561647920766f74656400000000000000000000000000000000000000600082015250565b6000610af9600d83610997565b9150610b0482610ac3565b602082019050919050565b60006020820190508181036000830152610b2881610aec565b9050919050565b7f496e76616c69642063616e646964617465000000000000000000000000000000600082015250565b6000610b65601183610997565b9150610b7082610b2f565b602082019050919050565b60006020820190508181036000830152610b9481610b58565b9050919050565b7f4e487b7100000000000000000000000000000000000000000000000000000000600052601160045260246000fd5b6000610bd5826106ff565b91507fffffffffffffffffffffffffffffffffffffffffffffffffffffffffffffffff8203610c0757610c06610b9b565b5b600182019050919050565b7f4e487b7100000000000000000000000000000000000000000000000000000000600052602260045260246000fd5b60006002820490506001821680610c5957607f821691505b602082108103610c6c57610c6b610c12565b5b50919050565b7f4f6e6c792061646d696e00000000000000000000000000000000000000000000600082015250565b6000610ca8600a83610997565b9150610cb382610c72565b602082019050919050565b60006020820190508181036000830152610cd781610c9b565b905091905056fea2646970667358221220aced67d920e63127f2ca51bdc061b9f1b7c7315ef57b1b556b8977446f1cb34664736f6c63430008180033",
  "linkReferences": {},
  "deployedLinkReferences": {}
}